{
  "_format": "hh-sol-artifact-1",
  "contractName": "TodoList",
  "sourceName": "contracts/ToDoList.sol",
  "abi": [
    {
      "anonymous": false,
      "inputs": [
        {
          "indexed": false,
          "internalType": "uint256",
          "name": "id",
          "type": "uint256"
        },
        {
          "indexed": false,
          "internalType": "bool",
          "name": "completed",
          "type": "bool"
        }
      ],
      "name": "TaskCompleted",
      "type": "event"
    },
    {
      "anonymous": false,
      "inputs": [
        {
          "indexed": false,
          "internalType": "uint256",
          "name": "id",
          "type": "uint256"
        },
        {
          "indexed": false,
          "internalType": "string",
          "name": "content",
          "type": "string"
        },
        {
          "indexed": false,
          "internalType": "bool",
          "name": "completed",
          "type": "bool"
        }
      ],
      "name": "TaskCreated",
      "type": "event"
    },
    {
      "anonymous": false,
      "inputs": [
        {
          "indexed": false,
          "internalType": "uint256",
          "name": "id",
          "type": "uint256"
        }
      ],
      "name": "TaskDeleted",
      "type": "event"
    },
    {
      "inputs": [
        {
          "internalType": "uint256",
          "name": "_id",
          "type": "uint256"
        }
      ],
      "name": "completeTask",
      "outputs": [],
      "stateMutability": "nonpayable",
      "type": "function"
    },
    {
      "inputs": [
        {
          "internalType": "string",
          "name": "_content",
          "type": "string"
        }
      ],
      "name": "createTask",
      "outputs": [],
      "stateMutability": "nonpayable",
      "type": "function"
    },
    {
      "inputs": [
        {
          "internalType": "uint256",
          "name": "_id",
          "type": "uint256"
        }
      ],
      "name": "deleteTask",
      "outputs": [],
      "stateMutability": "nonpayable",
      "type": "function"
    },
    {
      "inputs": [],
      "name": "getTasks",
      "outputs": [
        {
          "components": [
            {
              "internalType": "uint256",
              "name": "id",
              "type": "uint256"
            },
            {
              "internalType": "string",
              "name": "content",
              "type": "string"
            },
            {
              "internalType": "bool",
              "name": "completed",
              "type": "bool"
            }
          ],
          "internalType": "struct TodoList.Task[]",
          "name": "",
          "type": "tuple[]"
        }
      ],
      "stateMutability": "view",
      "type": "function"
    },
    {
      "inputs": [],
      "name": "taskCount",
      "outputs": [
        {
          "internalType": "uint256",
          "name": "",
          "type": "uint256"
        }
      ],
      "stateMutability": "view",
      "type": "function"
    },
    {
      "inputs": [
        {
          "internalType": "uint256",
          "name": "",
          "type": "uint256"
        }
      ],
      "name": "tasks",
      "outputs": [
        {
          "internalType": "uint256",
          "name": "id",
          "type": "uint256"
        },
        {
          "internalType": "string",
          "name": "content",
          "type": "string"
        },
        {
          "internalType": "bool",
          "name": "completed",
          "type": "bool"
        }
      ],
      "stateMutability": "view",
      "type": "function"
    }
  ],
  "bytecode": "0x60806040526000805534801561001457600080fd5b50610d6f806100246000396000f3fe608060405234801561001057600080fd5b50600436106100625760003560e01c806304a87e3814610067578063111002aa14610085578063560f3192146100a15780638d977672146100bd578063b6cb58a5146100ef578063e1e295581461010d575b600080fd5b61006f610129565b60405161007c9190610a12565b60405180910390f35b61009f600480360381019061009a9190610821565b6102fa565b005b6100bb60048036038101906100b69190610862565b6103d0565b005b6100d760048036038101906100d29190610862565b61044c565b6040516100e693929190610a78565b60405180910390f35b6100f761050b565b6040516101049190610a34565b60405180910390f35b61012760048036038101906101229190610862565b610511565b005b60606000805467ffffffffffffffff81111561016e577f4e487b7100000000000000000000000000000000000000000000000000000000600052604160045260246000fd5b6040519080825280602002602001820160405280156101a757816020015b61019461069e565b81526020019060019003908161018c5790505b5090506000600190505b60005481116102f25760016000828152602001908152602001600020604051806060016040529081600082015481526020016001820180546101f290610c09565b80601f016020809104026020016040519081016040528092919081815260200182805461021e90610c09565b801561026b5780601f106102405761010080835404028352916020019161026b565b820191906000526020600020905b81548152906001019060200180831161024e57829003601f168201915b505050505081526020016002820160009054906101000a900460ff1615151515815250508260018361029d9190610b7d565b815181106102d4577f4e487b7100000000000000000000000000000000000000000000000000000000600052603260045260246000fd5b602002602001018190525080806102ea90610c3b565b9150506101b1565b508091505090565b60008081548092919061030c90610c3b565b91905055506040518060600160405280600054815260200182815260200160001515815250600160008054815260200190815260200160002060008201518160000155602082015181600101908051906020019061036b9291906106c1565b5060408201518160020160006101000a81548160ff0219169083151502179055509050507f05d0fb833127fc08168556d0e7ca9554fc3f6bc843b3b7d2bf1c35aea6bab6606000548260006040516103c593929190610a78565b60405180910390a150565b600160008281526020019081526020016000206000808201600090556001820160006103fc9190610747565b6002820160006101000a81549060ff021916905550507fd078b251d950cc55c44340be1db732337ef4939a76e1367ee271ad2cb19c46af816040516104419190610a34565b60405180910390a150565b600160205280600052604060002060009150905080600001549080600101805461047590610c09565b80601f01602080910402602001604051908101604052809291908181526020018280546104a190610c09565b80156104ee5780601f106104c3576101008083540402835291602001916104ee565b820191906000526020600020905b8154815290600101906020018083116104d157829003601f168201915b5050505050908060020160009054906101000a900460ff16905083565b60005481565b6000600160008381526020019081526020016000206040518060600160405290816000820154815260200160018201805461054b90610c09565b80601f016020809104026020016040519081016040528092919081815260200182805461057790610c09565b80156105c45780601f10610599576101008083540402835291602001916105c4565b820191906000526020600020905b8154815290600101906020018083116105a757829003601f168201915b505050505081526020016002820160009054906101000a900460ff161515151581525050905080604001511581604001901515908115158152505080600160008481526020019081526020016000206000820151816000015560208201518160010190805190602001906106399291906106c1565b5060408201518160020160006101000a81548160ff0219169083151502179055509050507fe21fa966ca5cd02748c0752352d18c48165e61cb55b4c29cccf924b5a95fcff1828260400151604051610692929190610a4f565b60405180910390a15050565b604051806060016040528060008152602001606081526020016000151581525090565b8280546106cd90610c09565b90600052602060002090601f0160209004810192826106ef5760008555610736565b82601f1061070857805160ff1916838001178555610736565b82800160010185558215610736579182015b8281111561073557825182559160200191906001019061071a565b5b5090506107439190610787565b5090565b50805461075390610c09565b6000825580601f106107655750610784565b601f0160209004906000526020600020908101906107839190610787565b5b50565b5b808211156107a0576000816000905550600101610788565b5090565b60006107b76107b284610ae7565b610ab6565b9050828152602081018484840111156107cf57600080fd5b6107da848285610bc7565b509392505050565b600082601f8301126107f357600080fd5b81356108038482602086016107a4565b91505092915050565b60008135905061081b81610d22565b92915050565b60006020828403121561083357600080fd5b600082013567ffffffffffffffff81111561084d57600080fd5b610859848285016107e2565b91505092915050565b60006020828403121561087457600080fd5b60006108828482850161080c565b91505092915050565b600061089783836109a4565b905092915050565b60006108aa82610b27565b6108b48185610b4a565b9350836020820285016108c685610b17565b8060005b8581101561090257848403895281516108e3858261088b565b94506108ee83610b3d565b925060208a019950506001810190506108ca565b50829750879550505050505092915050565b61091d81610bb1565b82525050565b61092c81610bb1565b82525050565b600061093d82610b32565b6109478185610b5b565b9350610957818560208601610bd6565b61096081610d11565b840191505092915050565b600061097682610b32565b6109808185610b6c565b9350610990818560208601610bd6565b61099981610d11565b840191505092915050565b60006060830160008301516109bc60008601826109f4565b50602083015184820360208601526109d48282610932565b91505060408301516109e96040860182610914565b508091505092915050565b6109fd81610bbd565b82525050565b610a0c81610bbd565b82525050565b60006020820190508181036000830152610a2c818461089f565b905092915050565b6000602082019050610a496000830184610a03565b92915050565b6000604082019050610a646000830185610a03565b610a716020830184610923565b9392505050565b6000606082019050610a8d6000830186610a03565b8181036020830152610a9f818561096b565b9050610aae6040830184610923565b949350505050565b6000604051905081810181811067ffffffffffffffff82111715610add57610adc610ce2565b5b8060405250919050565b600067ffffffffffffffff821115610b0257610b01610ce2565b5b601f19601f8301169050602081019050919050565b6000819050602082019050919050565b600081519050919050565b600081519050919050565b6000602082019050919050565b600082825260208201905092915050565b600082825260208201905092915050565b600082825260208201905092915050565b6000610b8882610bbd565b9150610b9383610bbd565b925082821015610ba657610ba5610c84565b5b828203905092915050565b60008115159050919050565b6000819050919050565b82818337600083830152505050565b60005b83811015610bf4578082015181840152602081019050610bd9565b83811115610c03576000848401525b50505050565b60006002820490506001821680610c2157607f821691505b60208210811415610c3557610c34610cb3565b5b50919050565b6000610c4682610bbd565b91507fffffffffffffffffffffffffffffffffffffffffffffffffffffffffffffffff821415610c7957610c78610c84565b5b600182019050919050565b7f4e487b7100000000000000000000000000000000000000000000000000000000600052601160045260246000fd5b7f4e487b7100000000000000000000000000000000000000000000000000000000600052602260045260246000fd5b7f4e487b7100000000000000000000000000000000000000000000000000000000600052604160045260246000fd5b6000601f19601f8301169050919050565b610d2b81610bbd565b8114610d3657600080fd5b5056fea26469706673582212202ce7c60cbaefbbd21c0507962a03611eff6192c975c0166d323c7e22e2bfcf9964736f6c63430008000033",
  "linkReferences": {},
  "deployedLinkReferences": {}
}